{
  "transactions": [
    {
      "hash": "0xa5d6ae81c31726d2312f5cc5a86644608dbabc802cf34a6730a8473823b23941",
      "transactionType": "CALL",
      "contractName": "LinkToken",
      "contractAddress": "0x779877A7B0D9E8603169DdbD7836e478b4624789",
      "function": "transferAndCall(address,uint256,bytes)",
      "arguments": [
        "0x9DdfaCa8183c41ad55329BdeeD9F6A8d53168B1B",
        "3000000000000000000",
        "0x41fe9b717e9407481726f1c5099504ee33aac03499dd4c978a542945ed2a82ae"
      ],
      "transaction": {
        "from": "0x32A53d212d35e2882b55375631b962B6F578866D",
        "to": "0x779877A7B0D9E8603169DdbD7836e478b4624789",
        "gas": "0x14cbb",
        "value": "0x0",
        "input": "0x4000aea00000000000000000000000009ddfaca8183c41ad55329bdeed9f6a8d53168b1b00000000000000000000000000000000000000000000000029a2241af62c00000000000000000000000000000000000000000000000000000000000000000060000000000000000000000000000000000000000000000000000000000000002041fe9b717e9407481726f1c5099504ee33aac03499dd4c978a542945ed2a82ae",
        "nonce": "0xc",
        "chainId": "0xaa36a7"
      },
      "additionalContracts": [],
      "isFixedGasLimit": false
    }
  ],
  "receipts": [
    {
      "status": "0x1",
      "cumulativeGasUsed": "0xdeace6",
      "logs": [
        {
          "address": "0x779877A7B0D9E8603169DdbD7836e478b4624789",
          "topics": [
            "0xddf252ad1be2c89b69c2b068fc378daa952ba7f163c4a11628f55a4df523b3ef",
            "0x00000000000000000000000032a53d212d35e2882b55375631b962b6f578866d",
            "0x0000000000000000000000009ddfaca8183c41ad55329bdeed9f6a8d53168b1b"
          ],
          "data": "0x00000000000000000000000000000000000000000000000029a2241af62c0000",
          "blockHash": "0x26314177f3749a180aa1b3cc566616fedd0e3a036d57f466013f37191aeec18b",
          "blockNumber": "0x69f06c",
          "transactionHash": "0xa5d6ae81c31726d2312f5cc5a86644608dbabc802cf34a6730a8473823b23941",
          "transactionIndex": "0x42",
          "logIndex": "0x5c",
          "removed": false
        },
        {
          "address": "0x779877A7B0D9E8603169DdbD7836e478b4624789",
          "topics": [
            "0xe19260aff97b920c7df27010903aeb9c8d2be5d310a2c67824cf3f15396e4c16",
            "0x00000000000000000000000032a53d212d35e2882b55375631b962b6f578866d",
            "0x0000000000000000000000009ddfaca8183c41ad55329bdeed9f6a8d53168b1b"
          ],
          "data": "0x00000000000000000000000000000000000000000000000029a2241af62c00000000000000000000000000000000000000000000000000000000000000000040000000000000000000000000000000000000000000000000000000000000002041fe9b717e9407481726f1c5099504ee33aac03499dd4c978a542945ed2a82ae",
          "blockHash": "0x26314177f3749a180aa1b3cc566616fedd0e3a036d57f466013f37191aeec18b",
          "blockNumber": "0x69f06c",
          "transactionHash": "0xa5d6ae81c31726d2312f5cc5a86644608dbabc802cf34a6730a8473823b23941",
          "transactionIndex": "0x42",
          "logIndex": "0x5d",
          "removed": false
        },
        {
          "address": "0x9DdfaCa8183c41ad55329BdeeD9F6A8d53168B1B",
          "topics": [
            "0x1ced9348ff549fceab2ac57cd3a9de38edaaab274b725ee82c23e8fc8c4eec7a",
            "0x41fe9b717e9407481726f1c5099504ee33aac03499dd4c978a542945ed2a82ae"
          ],
          "data": "0x0000000000000000000000000000000000000000000000004563918244f400000000000000000000000000000000000000000000000000006f05b59d3b200000",
          "blockHash": "0x26314177f3749a180aa1b3cc566616fedd0e3a036d57f466013f37191aeec18b",
          "blockNumber": "0x69f06c",
          "transactionHash": "0xa5d6ae81c31726d2312f5cc5a86644608dbabc802cf34a6730a8473823b23941",
          "transactionIndex": "0x42",
          "logIndex": "0x5e",
          "removed": false
        }
      ],
      "logsBloom": "0x00000004000000000000000000000000000000000020000000000000020000400000000000000000000000000000000000000000000000000000000000000000000000000000000000000008000000000000000000000000000020000020008008001000000000800000000000000000000000000000000000000010000040000000000000000000000000010000800000000020000000000000010000000000000000000000000000000000010000000000000000000000000004000000000000000002000000000000000000000000000000000000000100000000000000000010000000000020800000000000000000000000000000000000000000000000",
      "type": "0x2",
      "transactionHash": "0xa5d6ae81c31726d2312f5cc5a86644608dbabc802cf34a6730a8473823b23941",
      "transactionIndex": "0x42",
      "blockHash": "0x26314177f3749a180aa1b3cc566616fedd0e3a036d57f466013f37191aeec18b",
      "blockNumber": "0x69f06c",
      "gasUsed": "0xf0e5",
      "effectiveGasPrice": "0x6685844f",
      "from": "0x32A53d212d35e2882b55375631b962B6F578866D",
      "to": "0x779877A7B0D9E8603169DdbD7836e478b4624789",
      "contractAddress": null
    }
  ],
  "libraries": [],
  "pending": [],
  "returns": {},
  "timestamp": 1729861563,
  "chain": 11155111,
  "commit": "f90a0ce"
}