{
  "transactions": [
    {
      "hash": null,
      "transactionType": "CALL",
      "contractName": "LinkToken",
      "contractAddress": "0x779877A7B0D9E8603169DdbD7836e478b4624789",
      "function": "transferAndCall(address,uint256,bytes)",
      "arguments": [
        "0x9DdfaCa8183c41ad55329BdeeD9F6A8d53168B1B",
        "3000000000000000000",
        "0x41fe9b717e9407481726f1c5099504ee33aac03499dd4c978a542945ed2a82ae"
      ],
      "transaction": {
        "from": "0x3C44CdDdB6a900fa2b585dd299e03d12FA4293BC",
        "to": "0x779877A7B0D9E8603169DdbD7836e478b4624789",
        "gas": "0x14cbb",
        "value": "0x0",
        "input": "0x4000aea00000000000000000000000009ddfaca8183c41ad55329bdeed9f6a8d53168b1b00000000000000000000000000000000000000000000000029a2241af62c00000000000000000000000000000000000000000000000000000000000000000060000000000000000000000000000000000000000000000000000000000000002041fe9b717e9407481726f1c5099504ee33aac03499dd4c978a542945ed2a82ae",
        "nonce": "0x5b0",
        "chainId": "0xaa36a7"
      },
      "additionalContracts": [],
      "isFixedGasLimit": false
    }
  ],
  "receipts": [],
  "libraries": [],
  "pending": [],
  "returns": {},
  "timestamp": 1729859269,
  "chain": 11155111,
  "commit": "f90a0ce"
}